:200000000C9428010C9445010C9445010C9445010C949E080C9445010C9445010C946B0741
:200020000C9445010C9445010C9445010C943B070C9445010C9445010C9445010C94450194
:200040000C9445010C9445010C94D7090C9452080C9445010C9447010C9445010C944501C0
:200060000C9445010C944501424954616C696E6F5F76352E320A001F21232527292A2C2EF2
:2000800030313334363738393A3B3C3C3D3D3E3E3E3E3E3D3D3C3C3B3A3938373634333140
:2000A000302E2C2A29272523211F1D1B1917151412100E0D0B0A08070605040302020101AA
:2000C0000000000000010102020304050607080A0B0D0E1012141517191B1D1F23272A2E55
:2000E000313437393B3C3D3E3E3D3C3B393734312E2A27231F1B1714100D0A070503020132
:20010000000001020305070A0D1014171BFF017E02F5025D03AE03E503FD03F503CD03899F
:20012000032B03BB023F02BF014301D300750031000900010019005000A10009018001FF75
:20014000019D022B039C03E503FE03E5039C032B039D02FF016101D300620019000000192C
:20016000006200D3006101B501D103E50252022902D20205002103B40308004C031103FCDD
:2001800003E900AD0391026C0012010D0338036B00E101E000B00348016D030A018203C17C
:2001A0000009032000910244028101D9002A039500F4010D00BF00F0015A039000ED02C3CC
:2001C000022300F401E2037300F802B801B801B801BB01C801D401DD01E001D801C301B81A
:2001E00001B801B801B801B5019F014302BF02E4018801B701B801B801B801B801B801B8FC
:2002000001B801B801BE01C801D201DA01E201E801EE01F101F301F301ED01E201D301C03B
:2002200001B801B801B901C201C201B901B80141542B42415544380041542B4E414D4500A3
:20024000000306050C0F0A090B080D0E0704010211241FBECFEFD8E0DEBFCDBF11E0A0E004
:20026000B1E0E6EDF6E102C005900D92A831B107D9F727E0A8E1B1E001C01D92A530B207CD
:20028000E1F70E94DB0A0C94690B0C9400001895CF93DF93CDB7DEB728970FB6F894DEBF04
:2002A0000FBECDBF8091C1008F778093C10010926F00109270007894FE01319687E0DF01FD
:2002C0001D928A95E9F7189B02C080E88F83199B03C08F8180648F834B9B03C08F81806269
:2002E0008F834C9B03C08F8180618F838DE880937A008091FB06806480937C00889590917A
:200300007A0096FDFCCF20917800309179003370220F331F220F331F8E819F81282B392B13
:200320003F832E8380910307823008F491C08091FC06806480937C00889590917A0096FD5F
:20034000FCCF809178009091790093702D813E81822B932B9E838D8380910307833008F4D9
:2003600077C08091FD06806480937C00889590917A0096FDFCCF8091780090917900002462
:20038000969587950794969587950794982F802D2B813C81822B932B9C838B838091030709
:2003A000843008F455C08091FE06806480937C00889590917A0096FDFCCF80917800909130
:2003C0007900937082959295907F9827807F98272A813B81822B932B9B838A8380910307BF
:2003E0008530B0F18091FF06806480937C00889590917A0096FDFCCF8091780090917900E5
:20040000807F9370880F991F880F991F29813A81822B932B9A838983809103078630C0F0C2
:2004200080910007806480937C00889590917A0096FDFCCF809178009091790093709295CE
:2004400082958F7089279F7089279981892B89834F9915C087E480937C00889590917A00CE
:2004600096FDFCCF8091780090917900937020910101309102018217930708F45F9A1092B7
:200480007A00F8948091C10080688093C10082E080936F0080937000CF010E94C808289661
:2004A0000FB6F894DEBF0FBECDBFDF91CF91089583FD0DC098E08770982B88E10FB6F8944F
:2004C000A895809360000FBE90936000FFCF98E2F2CF14BE0FB6F894A89580916000886159
:2004E00080936000109260000FBE0895E82FF0E0E550F94F8081823009F437C068F0843006
:20050000C1F050F18530E1F4E0910407F0E0E958FF4F849190E008958823A9F0813081F4F8
:20052000E62FF0E0EE0FFF1FE959FE4F859194910895E62FF0E0E552FF4F849190E00895C8
:2005400080E090E00895E62FF0E0EE0FFF1FE553FE4F859194910895E42FF0E0EE0FFF1FD3
:20056000E35FFE4F859194910895E22FF0E0EE0FFF1FE15CFE4F859194910895DF92EF92C4
:20058000FF920F931F93CF93DF93CDB7DEB728970FB6F894DEBF0FBECDBFCE0101967C01A0
:2005A00086E0F70111928A95E9F7809102078295807F8F8380910407823308F4A4C00EECCE
:2005C000080F093108F49DC067EED62ED00E1DEC819F112D112412951F70F4E11F9F80193C
:2005E0001124182F282F4D2D602F80E00E947602880F991F880F991F2E813F81822B932B2D
:200600009F838E8380910307823008F462C0212F4D2D602F81E00E9476022D813E81822BCE
:20062000932B9E838D8380910307833008F451C0212F4D2D602F82E00E94760200249695CC
:2006400087950794969587950794982F802D2B813C81822B932B9C838B83809103078430BD
:20066000C0F1212F4D2D602F83E00E94760282959295907F9827807F98272A813B81822B15
:20068000932B9B838A8380910307853010F1212F4D2D602F84E00E9476020024969587955E
:2006A0000794969587950794982F802D29813A81822B932B9A83898380910307863048F047
:2006C000212F4D2D602F85E00E9476029981892B8983C7010E94C808809104078F5F84366A
:2006E000A1F08093040728960FB6F894DEBF0FBECDBFDF91CF911F910F91FF90EF90DF90A9
:200700000895D02E64CF082F5CCF10920407EBCF7F928F929F92AF92BF92CF92DF92EF92FA
:20072000FF920F931F93CF93DF93CDB7DEB7E3970FB6F894DEBF0FBECDBF8FE0E4E0F1E022
:20074000DE01909601900D928A95E1F7FE01BF9685E0DF011D928A95E9F73099FECFBFE7EA
:20076000E9EAF3E0B150E040F040E1F700C0000088E3A82E82E0B82E9FE3892E92E0992EEF
:20078000F5018091C00085FFFCCF84918093C60031968E169F06A9F78E01005E1F4F6801E1
:2007A0007E0124E3E20EF11CF8019191992349F08091C00085FFFCCF9093C600EE15FF0596
:2007C000A1F78FEF9EE9A4E281509040A040E1F700C000005E9A8DE490E09093C500809309
:2007E000C40088E08093C100789481E080931801BFEFEEE9F4E2B150E040F040E1F700C01C
:20080000000088E392E00E940D092FEF8EE994E2215080409040E1F700C000008FE292E0BC
:200820000E940D095E98AFEFBEE9E4E2A150B040E040E1F700C000008CE090E09093C500A2
:200840008093C40082E08093C00088E18093C1003099FECFFFE729EA83E0F15020408040FC
:20086000E1F700C00000E8E3F2E08091C00085FFFCCF84918093C60031968E169F06A9F785
:20088000F8019191992349F08091C00085FFFCCF9093C600EE16FF06A1F79FEFAEE9B4E2E3
:2008A0009150A040B040E1F700C000005E9A8DE490E09093C5008093C40088E08093C1001B
:2008C00078947724739470921801EFEFFEE924E2E150F0402040E1F700C0000088E392E04E
:2008E0000E940D098FEF9EE9A4E281509040A040E1F700C000008FE292E00E940D095E980B
:20090000BFEFEEE9F4E2B150E040F040E1F700C00000F89486E880937A0083E58CBD7DBC22
:2009200093B189B192708470892B8A8F83B181708B8F2A9884E38EBD0DB407FEFDCF8EB5EE
:20094000898387E680937C0080917A00806480937A0080917A0086FDFCCF809179008B8322
:200960008EE680937C0080917A00806480937A0080917A0086FDFCCF8091790083B18270EF
:200980009B8D892B8B8F8BE291E00197F1F700C000001EBC0DB407FEFDCF8EB58C838EE611
:2009A00080937C0080917A00806480937A0080917A0086FDFCCF809179008D8389B184700B
:2009C0009B8D892B8B8FABE2B1E01197F1F700C000001EBC0DB407FEFDCF8EB58E83EBE226
:2009E000F1E03197F1F700C000001EBC0DB407FEFDCF8EB58A838BE291E00197F1F700C0DC
:200A000000001EBC0DB407FEFDCF8EB58F83ABE2B1E01197F1F700C000001EBC0DB407FE07
:200A2000FDCF8EB58887EBE2F1E03197F1F700C000001EBC0DB407FEFDCF8EB589878BE25E
:200A400091E00197F1F700C000001EBC0DB407FEFDCF8EB58A87ABE2B1E01197F1F700C0B7
:200A600000001EBC0DB407FEFDCF8EB58B87EBE2F1E03197F1F700C000001EBC0DB407FE07
:200A8000FDCF8EB58C878BE291E00197F1F700C000001EBC0DB407FEFDCF8EB58D87ABE2C6
:200AA000B1E01197F1F700C000001EBC0DB407FEFDCF8EB58E8783E680937C0080917A000E
:200AC000806480937A0080917A0086FDFCCF809179008C8FEBE2F1E03197F1F700C0000019
:200AE0001EBC0DB407FEFDCF8EB58F878BE291E00197F1F700C000001EBC0DB407FEFDCFA7
:200B00008EB5888B85E680937C0080917A00806480937A0080917A0086FDFCCF8091790026
:200B2000898B86E680937C0080917A00806480937A0080917A0086FDFCCF809179008A8B32
:200B400080EC88BD83E284BD81E085BD5E9A9FE3A7E0B4E09150A040B040E1F700C00000BD
:200B6000EBE2F1E03197F1F700C000001EBC0DB407FEFDCF8EB58B8B8BE291E00197F1F744
:200B800000C000001EBC0DB407FEFDCF8EB58C8B5E985F9A9FE3A7E0B4E09150A040B04092
:200BA000E1F700C00000EBE2F1E03197F1F700C000001EBC0DB407FEFDCF8EB58D8B8BE25B
:200BC00091E00197F1F700C000001EBC0DB407FEFDCF8EB58E8B5F989FE3A7E0B4E0915027
:200BE000A040B040E1F700C00000EBE2F1E03197F1F700C000001EBC0DB407FEFDCF8EB5D0
:200C0000888F5B9AFFE327E084E0F15020408040E1F700C00000ABE2B1E01197F1F700C014
:200C200000001EBC0DB407FEFDCF8EB58F8B5B98BFE3E7E0F4E0B150E040F040E1F700C0D2
:200C4000000083B181709A8D892B8A8F8BE291E00197F1F700C000001EBC0DB407FEFDCFF1
:200C60008EB58D8FABE2B1E01197F1F700C000001EBC0DB407FEFDCF8EB58E8F85E680935D
:200C80007C0080917A00806480937A0080917A0086FDFCCF809179008F8FBFE7E9EAF3E00F
:200CA000B150E040F040E1F700C000008BE291E00197F1F700C000001EBC0DB407FEFDCFC1
:200CC0008EB5898F18BC80E180937A001CBC2A9A8CE090E09093C5008093C40082E080934B
:200CE000C00088E18093C1008091C00087FFFCCFFE0131968091C00085FFFCCF81918093CA
:200D0000C6000E171F07B1F79FEFAEE9B4E29150A040B040E1F700C000008091C00087FFBF
:200D2000FCCF8091C6008436C1F78091C00087FFFCCF8091C600853609F44EC08091C0000F
:200D400087FFFCCF8091C6008336C1F7F8018091C00087FFFCCF8091C6008193882319F040
:200D6000EE16FF06A1F78091C00085FFFCCF86E38093C6003099FECFEFE7F9EA23E0E150ED
:200D8000F0402040E1F700C000008091C00085FFFCCFF50184918093C600FFEFAF1ABF0AA7
:200DA0008A149B0491F7D6019D916D01992349F08091C00085FFFCCF9093C600EC14FD04FC
:200DC00091F7BFEFEEE9F4E2B150E040F040E1F700C000001092C1002FEF8EE994E2215068
:200DE00080409040E1F700C00000E3960FB6F894DEBF0FBECDBFDF91CF911F910F91FF905C
:200E0000EF90DF90CF90BF90AF909F908F907F90089584E687BD2FE387E79BE12150804022
:200E20009040E1F700C0000081E48093C6008091C00085FFFCCF84E58093C6002FE387E72A
:200E40009BE1215080409040E1F700C000008091C00087FF08958091C6008F34D9F780910E
:200E6000C00087FFF7CF8091C6008B3499F781E080931801089580911801882351F0309937
:200E800008C01092810085E08093000184E687BD21C08091190190911A0120911B0130916A
:200EA0001C01821B930B97FF02C084529A4F009719F0893091054CF080910107882319F0CB
:200EC0000E94BE0202C00E944801809102078F5F80930207189580911D01882359F087B5D3
:200EE00090910001891B87BD87B581110EC010921D010BC097B580910001890F87BD87B54B
:200F00008A3F19F481E080931D0180918100882321F080910107882309F14F991FC085E829
:200F200080937A0087E480937C0080917A00806480937A0080917A0086FDFCCF80917800CC
:200F400090917900937020910101309102018217930708F45F9A80E180937A0018958F9299
:200F60009F92AF92BF92CF92DF92EF92FF920F931F93CF93DF935C01062FE0901B01F09004
:200F80001C01CCEDD5E0CE19DF09C0901901D0901A01862E912CC815D90538F1A401BC015B
:200FA000C701815E9E4F0E944A0B8E0C9F1C90921C0180921B018CED881685E0980609F4CD
:200FC0005AC0EC14FD0478F58C149D0460F18FEF881A980A8CED881685E0980609F45DC001
:200FE00090921A01809219011EC0AE01BC01C701815E9E4F0E944A0B0C1B10E0B5016C0F6B
:201000007D1FA8018FE191E00E944A0B10931C0100931B01EC14FD0450F50F5F1F4F10937F
:201020001A01009319018091180181110EC082E08BBB8093680080911801811106C03099F0
:2010400009C0809181008A3019F18091C10080628093C100DF91CF911F910F91FF90EF90BB
:20106000DF90CF90BF90AF909F908F9008950C151D05C8F2D2CF10921C0110921B01CD2819
:2010800091F681E090E090931A0180931901CBCF8091020780FFD9CFDDCF10921A011092A7
:2010A0001901C1CF1F920F920FB60F9211242F933F938F939F93EF93FF9380911901909151
:2010C0001A019C012F5F3F4F30931A0120931901FC01E15EFE4F80818093C6008091190103
:2010E00090911A018C3D25E0920709F120911B0130911C012817390779F48091C1008F7DDE
:201100008093C10010921C0110921B0110921A011092190110926800FF91EF919F918F919B
:201120003F912F910F900FBE0F901F90189510921A011092190180E090E0D8CF1F920F9276
:201140000FB60F9211242F933F938F939F9320911B0130911C018091190190911A012817BB
:20116000390739F030990EC08091C10080628093C1009F918F913F912F910F900FBE0F90FC
:201180001F9018958091C1008F7D8093C100F1CF209103073DEF320F333008F438C046E0DC
:2011A000421B473008F036C0542FE0E0DC01A50FB11D3C91F0E0E05CFD4F2491E32FE29568
:2011C000EF70E227F0E0E05CFD4F2491E32FEF70E2275F5F573051F7F0E0E05CFD4FE491C6
:2011E00020910207322F3F70E327F0E0E05CFD4FE49150E1259F90011124E22BDC011796FC
:20120000EC9368E0641B840F911D0C94AF0745E0421BCACFE0E4F2E0E2CF0F931F93CF93D9
:20122000DF931F92CDB7DEB78C0107C061E0CE0101960E94AF070F5F1F4FF8018491898329
:201240008111F4CF0F90DF91CF911F910F910895FF920F931F93CF93DF9300D0CDB7DEB73B
:2012600085E880937A0011E000E0812F806480937C0080917A00806480937A0080917A00F9
:2012800086FDFCCF809178009091790093709A83898362E0CE0101960E94AF0729819A81EC
:2012A000E02FF0E0E05CFD4F8491E22FE295EF708E27E82FF0E0E05CFD4F8491E22FEF7022
:2012C000E827F0E0E05CFD4F8491E92FE295EF70E827F0E0E05CFD4F8491E92FEF700E2F74
:2012E00008271F5F183009F0C0CF80E180937A00809101018F50898361E0CE0101960E943C
:20130000AF07F980E02FF0E0E05CFD4F8491EF2DE295EF70E827F0E0E05CFD4F049188B5F7
:20132000898361E0CE0101960E94AF079981EF2DEF70E027F0E0E05CFD4F8491E92FE2950A
:20134000EF70E827F0E0E05CFD4F8491E92FEF70E827198293B1892F817090FF02C01983B7
:2013600088E0199B02C0846089834B9B02C0826089834C998160F0E0E05CFD4FE491E82767
:20138000F0E0E05CFD4FE49120E1829FC0011124E82BE98361E0CE0101960E94AF070F904B
:2013A0000F90DF91CF911F910F91FF9008951F920F920FB60F9211240F931F932F933F936D
:2013C0004F935F936F937F938F939F93AF93BF93EF93FF93CF93DF931F92CDB7DEB780917A
:2013E000C60090911E0191113DC0982F937A933A09F460C0E0918100E1114DC0982F9370CF
:20140000913008F46DC0933008F075C0923009F48AC010920107109202074091010791E04A
:201420002FEF290F82FF0AC031E03E0FF0E0411101C0292FE550F94F2083E32F86959F5F27
:20144000973071F7E09303071092850010928400809103018093810082E38093000184E607
:2014600087BD03C010921E0188BD0F90DF91CF91FF91EF91BF91AF919F918F917F916F91F0
:201480005F914F913F912F911F910F910F900FBE0F901F9018959FEF980F9E3FC8F4982FA0
:2014A0009370933011F79BB1880F8871977E892B8BB9DBCF8F3F41F0833A09F450C0982F3B
:2014C000937F933B91F6EFCF80918100882369F21092810085E08093000184E687BDC5CF71
:2014E0008695869590E0815F9D4F90930201809301015F98BACF933099F78F30D1F098F163
:20150000833809F44BC0833C09F43EC0833409F0ACCF8DE399E490938900809388008BE084
:2015200080930301A2CF91E0909301071092040772CFE8E6F0E0E491E983EE2309F495CFA8
:2015400008E610E061E0CE0101960E94AF070F5F1F4FF801849189838111F4CF86CF81E0AD
:2015600080931E0182CF873021F38B3009F1833009F07BCF8AE197EB90938900809388003E
:201580008CE08093030171CF8BED95E090938900809388008AE08093030167CF82E597E0BF
:2015A00090938900809388008BE0809303015DCF0E9428095ACF14BE0FB6F894A8958091C9
:2015C0006000886180936000109260000FBE87E185B981E088B984E08BB98CE284B988EF6E
:2015E0008AB98EE380937E0080E880BFF999FECF80E090E00E94530B823561F0F999FECF69
:2016000062E580E090E00E945B0B0E94880382E00E9458028CE090E09093C5008093C40085
:2016200082E08093C00098E99093C10093EA94BDC1E0C5BD2BED35E030938900209388006B
:2016400080936F009FEF9093B3008093B00097E09093B100809370002FE78FE492E12150A6
:2016600080409040E1F700C0000080911801882341F081E083BF84E880936400789488958D
:20168000FECF0E940907809118018111F2CFC0936C00EFCFFB01DC0102C001900D92415075
:2016A0005040D8F70895F999FECF92BD81BDF89A992780B50895262FF999FECF1FBA92BD42
:2016C00081BD20BD0FB6F894FA9AF99A0FBE01960895F894FFCF050F020A424954616C69E7
:0E16E0006E6F2D49442D3031000000000000D7
:00000001FF
